{
  "address": "0xaDc2F5DB582f6d479c2FE5c4Dd2b377bedAdBeC8",
  "abi": [
    {
      "inputs": [],
      "name": "AlreadyRevealed",
      "type": "error"
    },
    {
      "inputs": [],
      "name": "InvalidAddress",
      "type": "error"
    },
    {
      "inputs": [],
      "name": "NotOwner",
      "type": "error"
    },
    {
      "inputs": [],
      "name": "NotRevealed",
      "type": "error"
    },
    {
      "inputs": [],
      "name": "TokenDoesNotExist",
      "type": "error"
    },
    {
      "anonymous": false,
      "inputs": [
        {
          "indexed": true,
          "internalType": "uint256",
          "name": "tokenId",
          "type": "uint256"
        },
        {
          "indexed": true,
          "internalType": "address",
          "name": "owner",
          "type": "address"
        },
        {
          "indexed": false,
          "internalType": "uint256",
          "name": "timestamp",
          "type": "uint256"
        }
      ],
      "name": "NFTMinted",
      "type": "event"
    },
    {
      "anonymous": false,
      "inputs": [
        {
          "indexed": true,
          "internalType": "uint256",
          "name": "tokenId",
          "type": "uint256"
        },
        {
          "indexed": false,
          "internalType": "uint64",
          "name": "rarity",
          "type": "uint64"
        },
        {
          "indexed": false,
          "internalType": "uint64",
          "name": "power",
          "type": "uint64"
        },
        {
          "indexed": false,
          "internalType": "uint64",
          "name": "speed",
          "type": "uint64"
        },
        {
          "indexed": false,
          "internalType": "uint256",
          "name": "timestamp",
          "type": "uint256"
        }
      ],
      "name": "NFTRevealed",
      "type": "event"
    },
    {
      "anonymous": false,
      "inputs": [
        {
          "indexed": true,
          "internalType": "address",
          "name": "from",
          "type": "address"
        },
        {
          "indexed": true,
          "internalType": "address",
          "name": "to",
          "type": "address"
        },
        {
          "indexed": true,
          "internalType": "uint256",
          "name": "tokenId",
          "type": "uint256"
        }
      ],
      "name": "Transfer",
      "type": "event"
    },
    {
      "inputs": [
        {
          "internalType": "address",
          "name": "",
          "type": "address"
        }
      ],
      "name": "balanceOf",
      "outputs": [
        {
          "internalType": "uint256",
          "name": "",
          "type": "uint256"
        }
      ],
      "stateMutability": "view",
      "type": "function"
    },
    {
      "inputs": [
        {
          "internalType": "uint256",
          "name": "tokenId",
          "type": "uint256"
        }
      ],
      "name": "exists",
      "outputs": [
        {
          "internalType": "bool",
          "name": "",
          "type": "bool"
        }
      ],
      "stateMutability": "view",
      "type": "function"
    },
    {
      "inputs": [
        {
          "internalType": "uint256",
          "name": "tokenId",
          "type": "uint256"
        }
      ],
      "name": "getEncryptedAttributes",
      "outputs": [
        {
          "internalType": "euint64",
          "name": "power",
          "type": "bytes32"
        },
        {
          "internalType": "euint64",
          "name": "speed",
          "type": "bytes32"
        }
      ],
      "stateMutability": "view",
      "type": "function"
    },
    {
      "inputs": [
        {
          "internalType": "uint256",
          "name": "tokenId",
          "type": "uint256"
        }
      ],
      "name": "getEncryptedRarity",
      "outputs": [
        {
          "internalType": "euint64",
          "name": "",
          "type": "bytes32"
        }
      ],
      "stateMutability": "view",
      "type": "function"
    },
    {
      "inputs": [
        {
          "internalType": "uint256",
          "name": "tokenId",
          "type": "uint256"
        }
      ],
      "name": "getEncryptedTokenURI",
      "outputs": [
        {
          "internalType": "string",
          "name": "",
          "type": "string"
        }
      ],
      "stateMutability": "view",
      "type": "function"
    },
    {
      "inputs": [
        {
          "internalType": "uint256",
          "name": "tokenId",
          "type": "uint256"
        }
      ],
      "name": "getRevealedAttributes",
      "outputs": [
        {
          "internalType": "uint64",
          "name": "rarity",
          "type": "uint64"
        },
        {
          "internalType": "uint64",
          "name": "power",
          "type": "uint64"
        },
        {
          "internalType": "uint64",
          "name": "speed",
          "type": "uint64"
        },
        {
          "internalType": "bool",
          "name": "revealed",
          "type": "bool"
        }
      ],
      "stateMutability": "view",
      "type": "function"
    },
    {
      "inputs": [
        {
          "internalType": "uint256",
          "name": "tokenId",
          "type": "uint256"
        }
      ],
      "name": "getRevealedTokenURI",
      "outputs": [
        {
          "internalType": "string",
          "name": "",
          "type": "string"
        }
      ],
      "stateMutability": "view",
      "type": "function"
    },
    {
      "inputs": [
        {
          "internalType": "uint256",
          "name": "tokenId",
          "type": "uint256"
        }
      ],
      "name": "isRevealed",
      "outputs": [
        {
          "internalType": "bool",
          "name": "",
          "type": "bool"
        }
      ],
      "stateMutability": "view",
      "type": "function"
    },
    {
      "inputs": [
        {
          "internalType": "string",
          "name": "tokenURI",
          "type": "string"
        }
      ],
      "name": "mint",
      "outputs": [
        {
          "internalType": "uint256",
          "name": "",
          "type": "uint256"
        }
      ],
      "stateMutability": "nonpayable",
      "type": "function"
    },
    {
      "inputs": [
        {
          "internalType": "uint256",
          "name": "tokenId",
          "type": "uint256"
        }
      ],
      "name": "ownerOf",
      "outputs": [
        {
          "internalType": "address",
          "name": "",
          "type": "address"
        }
      ],
      "stateMutability": "view",
      "type": "function"
    },
    {
      "inputs": [
        {
          "internalType": "uint256",
          "name": "",
          "type": "uint256"
        }
      ],
      "name": "owners",
      "outputs": [
        {
          "internalType": "address",
          "name": "",
          "type": "address"
        }
      ],
      "stateMutability": "view",
      "type": "function"
    },
    {
      "inputs": [],
      "name": "protocolId",
      "outputs": [
        {
          "internalType": "uint256",
          "name": "",
          "type": "uint256"
        }
      ],
      "stateMutability": "pure",
      "type": "function"
    },
    {
      "inputs": [
        {
          "internalType": "uint256",
          "name": "tokenId",
          "type": "uint256"
        },
        {
          "internalType": "uint64",
          "name": "rarity",
          "type": "uint64"
        },
        {
          "internalType": "uint64",
          "name": "power",
          "type": "uint64"
        },
        {
          "internalType": "uint64",
          "name": "speed",
          "type": "uint64"
        }
      ],
      "name": "submitRevealedAttributes",
      "outputs": [],
      "stateMutability": "nonpayable",
      "type": "function"
    },
    {
      "inputs": [
        {
          "internalType": "address",
          "name": "owner",
          "type": "address"
        }
      ],
      "name": "tokensOfOwner",
      "outputs": [
        {
          "internalType": "uint256[]",
          "name": "",
          "type": "uint256[]"
        }
      ],
      "stateMutability": "view",
      "type": "function"
    },
    {
      "inputs": [],
      "name": "totalSupply",
      "outputs": [
        {
          "internalType": "uint256",
          "name": "",
          "type": "uint256"
        }
      ],
      "stateMutability": "view",
      "type": "function"
    },
    {
      "inputs": [
        {
          "internalType": "address",
          "name": "to",
          "type": "address"
        },
        {
          "internalType": "uint256",
          "name": "tokenId",
          "type": "uint256"
        }
      ],
      "name": "transfer",
      "outputs": [],
      "stateMutability": "nonpayable",
      "type": "function"
    }
  ],
  "transactionHash": "0x15be48315c5782b62b30c7041d689d4d09786a2329a26c83cc7b1fe827b9800c",
  "args": [],
  "numDeployments": 2,
  "solcInputHash": "53eb3c06f512daf8ecedaeddacb235c3",
  "bytecode": "0x608060405234801561000f575f5ffd5b5061018a6100ae604080516080810182525f808252602082018190529181018290526060810191909152506040805160808101825273687820221192c5b662b25367f70076a37bc79b6c815273848b0066793bcc60346da1f49049357399b8d595602082015273a02cda4ca3a71d7c46997716f4283aa851c2881291810191909152731364cbbf2cdf5032c47d8226a6f6fbd2afcdacac606082015290565b80517f9e7b61f58c47dc699ac88507c4f5bb9f121c03808c5676a8078fe583e464970080546001600160a01b03199081166001600160a01b039384161790915560208301517f9e7b61f58c47dc699ac88507c4f5bb9f121c03808c5676a8078fe583e46497018054831691841691909117905560408301517f9e7b61f58c47dc699ac88507c4f5bb9f121c03808c5676a8078fe583e46497028054831691841691909117905560608301517f9e7b61f58c47dc699ac88507c4f5bb9f121c03808c5676a8078fe583e46497038054909216921691909117905550565b6110c9806101975f395ff3fe608060405234801561000f575f5ffd5b50600436106100fb575f3560e01c80636352211e1161009357806392544b881161006357806392544b88146102ba578063a9059cbb146102cf578063d85d3d27146102e2578063da1f12ab146102f5575f5ffd5b80636352211e1461024057806370a08231146102535780638462151c146102725780638c68b17914610292575f5ffd5b806333bf0601116100ce57806333bf0601146101885780634a9cd5cd1461019b5780634f558e79146101e45780635055fbc31461021e575f5ffd5b8063025e7c27146100ff57806306a231511461014457806318160ddd146101645780632f378c5514610175575b5f5ffd5b61012761010d366004610ce7565b60016020525f90815260409020546001600160a01b031681565b6040516001600160a01b0390911681526020015b60405180910390f35b610157610152366004610ce7565b6102fd565b60405161013b9190610cfe565b5f545b60405190815260200161013b565b610167610183366004610ce7565b6103d1565b610157610196366004610ce7565b610419565b6101ae6101a9366004610ce7565b61044a565b60405161013b949392919067ffffffffffffffff9485168152928416602084015292166040820152901515606082015260800190565b61020e6101f2366004610ce7565b5f908152600160205260409020546001600160a01b0316151590565b604051901515815260200161013b565b61020e61022c366004610ce7565b5f9081526009602052604090205460ff1690565b61012761024e366004610ce7565b6104b6565b610167610261366004610d4e565b60026020525f908152604090205481565b610285610280366004610d4e565b6104f1565b60405161013b9190610d6e565b6102a56102a0366004610ce7565b610559565b6040805192835260208301919091520161013b565b6102cd6102c8366004610dc7565b6105b1565b005b6102cd6102dd366004610e11565b6106cc565b6101676102f0366004610e39565b610849565b612711610167565b5f818152600160205260409020546060906001600160a01b03163314610336576040516330cd747160e01b815260040160405180910390fd5b5f828152600560205260409020805461034e90610ea7565b80601f016020809104026020016040519081016040528092919081815260200182805461037a90610ea7565b80156103c55780601f1061039c576101008083540402835291602001916103c5565b820191905f5260205f20905b8154815290600101906020018083116103a857829003601f168201915b50505050509050919050565b5f818152600160205260408120546001600160a01b03163314610407576040516330cd747160e01b815260040160405180910390fd5b505f9081526006602052604090205490565b5f8181526009602052604090205460609060ff1661033657604051631659379160e31b815260040160405180910390fd5b5f8181526009602052604081205481908190819060ff1661047557505f9250829150819050806104af565b5050505f828152600a6020908152604080832054600b835281842054600c90935292205467ffffffffffffffff9283169350908216911660015b9193509193565b5f818152600160205260408120546001600160a01b0316806104eb5760405163677510db60e11b815260040160405180910390fd5b92915050565b6001600160a01b0381165f908152600360209081526040918290208054835181840281018401909452808452606093928301828280156103c557602002820191905f5260205f20905b81548152602001906001019080831161053a5750505050509050919050565b5f8181526001602052604081205481906001600160a01b03163314610591576040516330cd747160e01b815260040160405180910390fd5b50505f908152600760209081526040808320546008909252909120549091565b5f848152600160205260409020546001600160a01b031633146105e7576040516330cd747160e01b815260040160405180910390fd5b5f8481526009602052604090205460ff16156106165760405163a89ac15160e01b815260040160405180910390fd5b5f848152600960209081526040808320805460ff19166001179055600a8252808320805467ffffffffffffffff88811667ffffffffffffffff199283168117909355600b855283862080548983169084168117909155600c865295849020805491881691909216811790915582519182529281019390935282015242606082015284907fbd856ae010b85c44019fed970c2d1267adf7c28e7411e13d9aba1c28b96c68429060800160405180910390a250505050565b5f818152600160205260409020546001600160a01b03163314610702576040516330cd747160e01b815260040160405180910390fd5b6001600160a01b0382166107295760405163e6c4247b60e01b815260040160405180910390fd5b5f818152600160209081526040808320805473ffffffffffffffffffffffffffffffffffffffff19166001600160a01b03871617905533808452600290925282208054919261077783610ef3565b90915550506001600160a01b0383165f90815260026020526040812080549161079f83610f08565b91905055506107ae8183610a07565b6107b88383610b1c565b5f828152600660205260409020546107d09084610b6a565b505f828152600760205260409020546107e99084610b6a565b505f828152600860205260409020546108029084610b6a565b5081836001600160a01b0316826001600160a01b03167fddf252ad1be2c89b69c2b068fc378daa952ba7f163c4a11628f55a4df523b3ef60405160405180910390a4505050565b5f8054818061085783610f08565b90915550505f8054808252600160209081526040808420805473ffffffffffffffffffffffffffffffffffffffff191633908117909155845260029091528220805491926108a483610f08565b9091555050335f8181526003602090815260408220805460018181018355828552928420018590559290915290546108dc9190610f20565b5f828152600460209081526040808320939093556005905220610900848683610f93565b505f61090c6080610b7c565b5f838152600660205260409020819055905061092781610b92565b506109328133610b6a565b505f61093e6080610b7c565b5f848152600760205260409020819055905061095981610b92565b506109648133610b6a565b505f6109706080610b7c565b5f858152600860205260409020819055905061098b81610b92565b506109968133610b6a565b50604051428152339085907f055e34067993de700e7f718f190fdccc92a27695bb9068504a1a44258577f8eb9060200160405180910390a3604051849033905f907fddf252ad1be2c89b69c2b068fc378daa952ba7f163c4a11628f55a4df523b3ef908290a4509195945050505050565b6001600160a01b0382165f90815260036020526040812054610a2b90600190610f20565b5f83815260046020526040902054909150808214610acb576001600160a01b0384165f908152600360205260408120805484908110610a6c57610a6c61104d565b905f5260205f20015490508060035f876001600160a01b03166001600160a01b031681526020019081526020015f208381548110610aac57610aac61104d565b5f91825260208083209091019290925591825260049052604090208190555b6001600160a01b0384165f908152600360205260409020805480610af157610af1611061565b5f828152602080822083015f1990810183905590920190925593815260049093525050604081205550565b6001600160a01b0382165f818152600360209081526040822080546001818101835582855292842001859055929091529054610b589190610f20565b5f918252600460205260409091205550565b5f610b758383610ba1565b5090919050565b5f6104eb8267ffffffffffffffff166005610c2a565b5f610b9d8230610ba1565b5090565b5f7f9e7b61f58c47dc699ac88507c4f5bb9f121c03808c5676a8078fe583e46497008054604051635ca4b5b160e11b8152600481018690526001600160a01b03858116602483015292935091169063b9496b62906044015f604051808303815f87803b158015610c0f575f5ffd5b505af1158015610c21573d5f5f3e3d5ffd5b50505050505050565b7f9e7b61f58c47dc699ac88507c4f5bb9f121c03808c5676a8078fe583e4649701546040516324777a3f60e11b81525f917f9e7b61f58c47dc699ac88507c4f5bb9f121c03808c5676a8078fe583e4649700916001600160a01b03909116906348eef47e90610c9f9087908790600401611075565b6020604051808303815f875af1158015610cbb573d5f5f3e3d5ffd5b505050506040513d601f19601f82011682018060405250810190610cdf91906110a5565b949350505050565b5f60208284031215610cf7575f5ffd5b5035919050565b602081525f82518060208401528060208501604085015e5f604082850101526040601f19601f83011684010191505092915050565b80356001600160a01b0381168114610d49575f5ffd5b919050565b5f60208284031215610d5e575f5ffd5b610d6782610d33565b9392505050565b602080825282518282018190525f918401906040840190835b81811015610da5578351835260209384019390920191600101610d87565b509095945050505050565b803567ffffffffffffffff81168114610d49575f5ffd5b5f5f5f5f60808587031215610dda575f5ffd5b84359350610dea60208601610db0565b9250610df860408601610db0565b9150610e0660608601610db0565b905092959194509250565b5f5f60408385031215610e22575f5ffd5b610e2b83610d33565b946020939093013593505050565b5f5f60208385031215610e4a575f5ffd5b823567ffffffffffffffff811115610e60575f5ffd5b8301601f81018513610e70575f5ffd5b803567ffffffffffffffff811115610e86575f5ffd5b856020828401011115610e97575f5ffd5b6020919091019590945092505050565b600181811c90821680610ebb57607f821691505b602082108103610ed957634e487b7160e01b5f52602260045260245ffd5b50919050565b634e487b7160e01b5f52601160045260245ffd5b5f81610f0157610f01610edf565b505f190190565b5f60018201610f1957610f19610edf565b5060010190565b818103818111156104eb576104eb610edf565b634e487b7160e01b5f52604160045260245ffd5b601f821115610f8e57805f5260205f20601f840160051c81016020851015610f6c5750805b601f840160051c820191505b81811015610f8b575f8155600101610f78565b50505b505050565b67ffffffffffffffff831115610fab57610fab610f33565b610fbf83610fb98354610ea7565b83610f47565b5f601f841160018114610ff0575f8515610fd95750838201355b5f19600387901b1c1916600186901b178355610f8b565b5f83815260208120601f198716915b8281101561101f5786850135825560209485019460019092019101610fff565b508682101561103b575f1960f88860031b161c19848701351681555b505060018560011b0183555050505050565b634e487b7160e01b5f52603260045260245ffd5b634e487b7160e01b5f52603160045260245ffd5b828152604081016054831061109857634e487b7160e01b5f52602160045260245ffd5b8260208301529392505050565b5f602082840312156110b5575f5ffd5b505191905056fea164736f6c634300081b000a",
  "devdoc": {
    "details": "",
    "kind": "dev",
    "methods": {
      "exists(uint256)": {
        "params": {
          "tokenId": "NFT ID"
        },
        "returns": {
          "_0": ""
        }
      },
      "getEncryptedAttributes(uint256)": {
        "params": {
          "tokenId": "NFT ID"
        },
        "returns": {
          "power": "",
          "speed": ""
        }
      },
      "getEncryptedRarity(uint256)": {
        "params": {
          "tokenId": "NFT ID"
        },
        "returns": {
          "_0": ""
        }
      },
      "getEncryptedTokenURI(uint256)": {
        "params": {
          "tokenId": "NFT ID"
        },
        "returns": {
          "_0": "URI"
        }
      },
      "getRevealedAttributes(uint256)": {
        "params": {
          "tokenId": "NFT ID"
        },
        "returns": {
          "power": "",
          "rarity": "",
          "revealed": "",
          "speed": ""
        }
      },
      "getRevealedTokenURI(uint256)": {
        "params": {
          "tokenId": "NFT ID"
        },
        "returns": {
          "_0": "URI"
        }
      },
      "isRevealed(uint256)": {
        "params": {
          "tokenId": "NFT ID"
        },
        "returns": {
          "_0": ""
        }
      },
      "mint(string)": {
        "params": {
          "tokenURI": "NFTURIIPFSHTTP"
        },
        "returns": {
          "_0": " tokenId"
        }
      },
      "ownerOf(uint256)": {
        "params": {
          "tokenId": "NFT ID"
        },
        "returns": {
          "_0": "NFT"
        }
      },
      "submitRevealedAttributes(uint256,uint64,uint64,uint64)": {
        "details": " Relayer SDK ",
        "params": {
          "power": "0-100",
          "rarity": "0-100",
          "speed": "0-100",
          "tokenId": "NFT ID"
        }
      },
      "tokensOfOwner(address)": {
        "params": {
          "owner": ""
        },
        "returns": {
          "_0": " tokenId "
        }
      },
      "totalSupply()": {
        "returns": {
          "_0": "NFT"
        }
      },
      "transfer(address,uint256)": {
        "params": {
          "to": "",
          "tokenId": "NFT ID"
        }
      }
    },
    "title": "BlindNFT v2 - NFT",
    "version": 1
  },
  "userdoc": {
    "kind": "user",
    "methods": {
      "exists(uint256)": {
        "notice": "token"
      },
      "getEncryptedAttributes(uint256)": {
        "notice": ""
      },
      "getEncryptedRarity(uint256)": {
        "notice": ""
      },
      "getEncryptedTokenURI(uint256)": {
        "notice": "URI"
      },
      "getRevealedAttributes(uint256)": {
        "notice": ""
      },
      "getRevealedTokenURI(uint256)": {
        "notice": "URI"
      },
      "isRevealed(uint256)": {
        "notice": "NFT"
      },
      "mint(string)": {
        "notice": "NFT - "
      },
      "ownerOf(uint256)": {
        "notice": "NFT"
      },
      "submitRevealedAttributes(uint256,uint64,uint64,uint64)": {
        "notice": "NFT - "
      },
      "tokensOfOwner(address)": {
        "notice": "  NFT ID"
      },
      "totalSupply()": {
        "notice": ""
      },
      "transfer(address,uint256)": {
        "notice": "NFT"
      }
    },
    "notice": "NFT",
    "version": 1
  },
  "storageLayout": {
    "storage": [
      {
        "astId": 39037,
        "contract": "contracts/BlindNFT.sol:BlindNFT",
        "label": "_tokenIdCounter",
        "offset": 0,
        "slot": "0",
        "type": "t_uint256"
      },
      {
        "astId": 39041,
        "contract": "contracts/BlindNFT.sol:BlindNFT",
        "label": "owners",
        "offset": 0,
        "slot": "1",
        "type": "t_mapping(t_uint256,t_address)"
      },
      {
        "astId": 39045,
        "contract": "contracts/BlindNFT.sol:BlindNFT",
        "label": "balanceOf",
        "offset": 0,
        "slot": "2",
        "type": "t_mapping(t_address,t_uint256)"
      },
      {
        "astId": 39050,
        "contract": "contracts/BlindNFT.sol:BlindNFT",
        "label": "_ownedTokens",
        "offset": 0,
        "slot": "3",
        "type": "t_mapping(t_address,t_array(t_uint256)dyn_storage)"
      },
      {
        "astId": 39054,
        "contract": "contracts/BlindNFT.sol:BlindNFT",
        "label": "_ownedTokensIndex",
        "offset": 0,
        "slot": "4",
        "type": "t_mapping(t_uint256,t_uint256)"
      },
      {
        "astId": 39058,
        "contract": "contracts/BlindNFT.sol:BlindNFT",
        "label": "_encryptedTokenURIs",
        "offset": 0,
        "slot": "5",
        "type": "t_mapping(t_uint256,t_string_storage)"
      },
      {
        "astId": 39063,
        "contract": "contracts/BlindNFT.sol:BlindNFT",
        "label": "_encryptedRarity",
        "offset": 0,
        "slot": "6",
        "type": "t_mapping(t_uint256,t_userDefinedValueType(euint64)39878)"
      },
      {
        "astId": 39068,
        "contract": "contracts/BlindNFT.sol:BlindNFT",
        "label": "_encryptedPower",
        "offset": 0,
        "slot": "7",
        "type": "t_mapping(t_uint256,t_userDefinedValueType(euint64)39878)"
      },
      {
        "astId": 39073,
        "contract": "contracts/BlindNFT.sol:BlindNFT",
        "label": "_encryptedSpeed",
        "offset": 0,
        "slot": "8",
        "type": "t_mapping(t_uint256,t_userDefinedValueType(euint64)39878)"
      },
      {
        "astId": 39077,
        "contract": "contracts/BlindNFT.sol:BlindNFT",
        "label": "_isRevealed",
        "offset": 0,
        "slot": "9",
        "type": "t_mapping(t_uint256,t_bool)"
      },
      {
        "astId": 39081,
        "contract": "contracts/BlindNFT.sol:BlindNFT",
        "label": "_revealedRarity",
        "offset": 0,
        "slot": "10",
        "type": "t_mapping(t_uint256,t_uint64)"
      },
      {
        "astId": 39085,
        "contract": "contracts/BlindNFT.sol:BlindNFT",
        "label": "_revealedPower",
        "offset": 0,
        "slot": "11",
        "type": "t_mapping(t_uint256,t_uint64)"
      },
      {
        "astId": 39089,
        "contract": "contracts/BlindNFT.sol:BlindNFT",
        "label": "_revealedSpeed",
        "offset": 0,
        "slot": "12",
        "type": "t_mapping(t_uint256,t_uint64)"
      }
    ],
    "types": {
      "t_address": {
        "encoding": "inplace",
        "label": "address",
        "numberOfBytes": "20"
      },
      "t_array(t_uint256)dyn_storage": {
        "base": "t_uint256",
        "encoding": "dynamic_array",
        "label": "uint256[]",
        "numberOfBytes": "32"
      },
      "t_bool": {
        "encoding": "inplace",
        "label": "bool",
        "numberOfBytes": "1"
      },
      "t_mapping(t_address,t_array(t_uint256)dyn_storage)": {
        "encoding": "mapping",
        "key": "t_address",
        "label": "mapping(address => uint256[])",
        "numberOfBytes": "32",
        "value": "t_array(t_uint256)dyn_storage"
      },
      "t_mapping(t_address,t_uint256)": {
        "encoding": "mapping",
        "key": "t_address",
        "label": "mapping(address => uint256)",
        "numberOfBytes": "32",
        "value": "t_uint256"
      },
      "t_mapping(t_uint256,t_address)": {
        "encoding": "mapping",
        "key": "t_uint256",
        "label": "mapping(uint256 => address)",
        "numberOfBytes": "32",
        "value": "t_address"
      },
      "t_mapping(t_uint256,t_bool)": {
        "encoding": "mapping",
        "key": "t_uint256",
        "label": "mapping(uint256 => bool)",
        "numberOfBytes": "32",
        "value": "t_bool"
      },
      "t_mapping(t_uint256,t_string_storage)": {
        "encoding": "mapping",
        "key": "t_uint256",
        "label": "mapping(uint256 => string)",
        "numberOfBytes": "32",
        "value": "t_string_storage"
      },
      "t_mapping(t_uint256,t_uint256)": {
        "encoding": "mapping",
        "key": "t_uint256",
        "label": "mapping(uint256 => uint256)",
        "numberOfBytes": "32",
        "value": "t_uint256"
      },
      "t_mapping(t_uint256,t_uint64)": {
        "encoding": "mapping",
        "key": "t_uint256",
        "label": "mapping(uint256 => uint64)",
        "numberOfBytes": "32",
        "value": "t_uint64"
      },
      "t_mapping(t_uint256,t_userDefinedValueType(euint64)39878)": {
        "encoding": "mapping",
        "key": "t_uint256",
        "label": "mapping(uint256 => euint64)",
        "numberOfBytes": "32",
        "value": "t_userDefinedValueType(euint64)39878"
      },
      "t_string_storage": {
        "encoding": "bytes",
        "label": "string",
        "numberOfBytes": "32"
      },
      "t_uint256": {
        "encoding": "inplace",
        "label": "uint256",
        "numberOfBytes": "32"
      },
      "t_uint64": {
        "encoding": "inplace",
        "label": "uint64",
        "numberOfBytes": "8"
      },
      "t_userDefinedValueType(euint64)39878": {
        "encoding": "inplace",
        "label": "euint64",
        "numberOfBytes": "32"
      }
    }
  }
}